:100000000C942A000C943F030C9447000C94470076
:100010000C9447000C9447000C9447000C94470044
:100020000C9447000C9447000C94CD040C944700AA
:100030000C9447000C9447000C9447000C94470024
:100040000C9447000C9447000C9447000C94470014
:100050000C94470011241FBECFE5D8E0DEBFCDBF12
:1000600010E0A0E6B0E0E8EEF9E002C005900D92E5
:10007000A037B107D9F720E0A0E7B0E001C01D929A
:10008000A938B207E1F70E9494030C94F2040C948F
:100090000000CCE6D0E011E002E06894DD24D2F864
:1000A0000F2EF3E0CF2EF02D0F2EF5E0BF2EF02D0A
:1000B000EC2EFD2E0E94C404609384007093850092
:1000C00080938600909387008091780081119DC075
:1000D00080917E0090917F00A0918000B09181007E
:1000E0004091840050918500609186007091870056
:1000F00088579C4EAF4FBF4F481759076A077B0779
:1001000008F4BBC1809179008130A9F018F08230E9
:10011000D1F14AC0109379001092880080916A0052
:1001200090916B000E948B03809168009091690010
:100130000E94860349C080918800811111C00093FC
:1001400079001093880080916800909169000E9466
:100150008B0380916600909167000E94860334C0F3
:10016000823091F510927900109388008091680098
:10017000909169000E948B0380916A0090916B00BE
:100180000E94860321C0109379000093880080911B
:100190006600909167000E948B03809168009091A7
:1001A00069000E94860310C01092790010938800A5
:1001B00080916800909169000E948B0380916A0091
:1001C00090916B000E94860380918400909185003D
:1001D000A0918600B091870080937E0090937F006D
:1001E000A0938000B093810080918400909185005D
:1001F000A0918600B091870080937A0090937B0055
:10020000A0937C00B0937D0038C18091780081304C
:1002100009F033C1809179008230B1F5809182007C
:10022000853009F079C080916000909161000E9452
:100230008B03C0928200B092830080916400909101
:1002400065000E9486038091840090918500A091B2
:100250008600B091870080937E0090937F00A093EA
:100260008000B09381008091840090918500A091DE
:100270008600B091870080937A0090937B00A093D2
:100280007C00B0937D0048C0823008F045C080916A
:100290008200853009F040C0B0928300D092820085
:1002A000109379001092880080916A0090916B0001
:1002B0000E948B0380916600909167000E948B03DF
:1002C00080916800909169000E948603809162008D
:1002D000909163000E948603809184009091850034
:1002E000A0918600B091870080937E0090937F005C
:1002F000A0938000B093810080918400909185004C
:10030000A0918600B091870080937A0090937B0043
:10031000A0937C00B0937D0080917E0090917F003F
:10032000A0918000B091810040918400509185009F
:10033000609186007091870088579C4EAF4FBF4FE9
:10034000481759076A077B0708F497C08091820015
:10035000833019F08430E1F070C080916600909194
:1003600067000E948B0380916800909169000E9451
:10037000860380916200909163000E94860310932F
:10038000790000938800D0928200C092830055C00B
:1003900080918300833049F58091640090916500DD
:1003A0000E948B0380916200909163000E948B03F6
:1003B00080916000909161000E94860380916800A6
:1003C000909169000E948B0380916A0090916B006C
:1003D0000E948603B0928200D0928300109279002E
:1003E000109388001092780028C0853031F58091F4
:1003F0006000909161000E948B0380916200909157
:1004000063000E948B0380916400909165000E94BC
:10041000860380916800909169000E948B0380910F
:100420006600909167000E948603C0928200D0927D
:10043000830000937900109388008091840090914C
:100440008500A0918600B091870080937E009093F4
:100450007F00A0938000B0938100809184009091F0
:100460008500A0918600B091870080937A009093D8
:100470007B00A0937C00B0937D008A81813021F5C0
:100480008091740090917500A0917600B0917700F2
:1004900040918400509185006091860070918700A2
:1004A00088519C4FAF4FBF4F481759076A077B07CA
:1004B00058F08E2D9F2D0E9478038A81811103C0F0
:1004C0001093780001C01A8280917A0090917B008D
:1004D000A0917C00B0917D004091840050918500F6
:1004E000609186007091870088519C4FAF4FBF4F3D
:1004F000481759076A077B0708F4DCCD809178001C
:1005000081110BC080917900813081F58091680064
:10051000909169000E94900318C08091780081300A
:10052000A1F480917900813081F48091820084303F
:1005300061F480916800909169000E94900380911D
:100540006200909163000E949003809184009091DA
:100550008500A0918600B091870080937A009093E7
:100560007B00A0937C00B0937D00A4CD80917800A7
:10057000ECCF85B7816085BF85B7826085BF8BB7BB
:1005800080648BBF08951092780060916C00709128
:100590006D0080916E000E94720380916A009091BC
:1005A0006B000E94810380916800909169000E9415
:1005B000810380916600909167000E948103809181
:1005C0006400909165000E94810380916200909187
:1005D00063000E94810380916000909161000E94FD
:1005E00081031092790081E08093880085E08093F8
:1005F000820084E08093830080916A0090916B0078
:100600000E94860380916800909169000E948B038C
:1006100080916600909167000E948B038091640036
:10062000909165000E948B0380916200909163001D
:100630000E948B0380916000909161000E9486036C
:1006400081E00E94B6040E94B902789410927E0064
:1006500010927F00109280001092810010927A0018
:1006600010927B0010927C0010927D00109274001A
:1006700010927500109276001092770008951F92E4
:100680000F920FB60F9211242F933F934F935F93C6
:100690006F937F938F939F93AF93BF93EF93FF934A
:1006A0008091780081110DC081E080936E000E94DE
:1006B000C4046093740070937500809376009093E7
:1006C0007700FF91EF91BF91AF919F918F917F91B3
:1006D0006F915F914F913F912F910F900FBE0F90AF
:1006E0001F901895862F672F40E00E949B03089566
:1006F000AC014E5F5F4FFC01618180810E947404F8
:10070000089541E0692F0E949B03089541E0692FFD
:100710000E94F403089540E0692F0E94F4030895B5
:10072000692F0E944D0408950E94C3020E9449004F
:1007300080E090E00895823409F18434D1F181346D
:1007400009F051C041110CC02AB381E090E002C011
:10075000880F991F6A95E2F7809582238ABB0895D6
:10076000413009F040C02AB381E090E002C0880F18
:10077000991F6A95E2F7822B8ABB089541110CC03C
:1007800027B381E090E002C0880F991F6A95E2F7D5
:100790008095822387BB0895413029F527B381E0F6
:1007A00090E002C0880F991F6A95E2F7822B87BB01
:1007B000089541110CC021B381E090E002C0880F80
:1007C000991F6A95E2F78095822381BB0895413095
:1007D00051F421B381E090E002C0880F991F6A951F
:1007E000E2F7822B81BB0895823409F18434D1F180
:1007F000813409F051C041110CC02BB381E090E06D
:1008000002C0880F991F6A95E2F7809582238BBBFF
:100810000895413009F040C02BB381E090E002C060
:10082000880F991F6A95E2F7822B8BBB08954111BF
:100830000CC028B381E090E002C0880F991F6A9530
:10084000E2F78095822388BB0895413029F528B3CB
:1008500081E090E002C0880F991F6A95E2F7822B31
:1008600088BB089541110CC022B381E090E002C022
:10087000880F991F6A95E2F78095822382BB0895BD
:10088000413051F422B381E090E002C0880F991FFB
:100890006A95E2F7822B82BB0895823479F0843422
:1008A000C1F0813401F52BB381E090E002C0880FE4
:1008B000991F6A95E2F782278BBB089528B381E0E0
:1008C00090E002C0880F991F6A95E2F7822788BBE3
:1008D000089522B381E090E002C0880F991F6A95C5
:1008E000E2F7822782BB08958234C1F0843451F14B
:1008F0008134D9F529B381E090E0062E02C0880F3B
:10090000991F0A94E2F730E08223932302C0969560
:1009100087956A95E2F7FA018083089526B381E00E
:1009200090E0062E02C0880F991F0A94E2F730E08B
:100930008223932302C0969587956A95E2F7FA0180
:100940008083089520B381E090E0062E02C0880FD6
:10095000991F0A94E2F730E08223932302C0969510
:1009600087956A95E2F7FA0180830895813059F4FA
:1009700083B7886083BF83B7826083BF89EF8CBFF2
:1009800089B7826089BF089560917000709171008D
:10099000809172009091730008951F920F920FB68C
:1009A0000F9211248F939F93AF93BF938091700008
:1009B00090917100A0917200B09173000296A11DF8
:1009C000B11D8093700090937100A0937200B0935A
:1009D0007300BF91AF919F918F910F900FBE0F90B9
:0809E0001F901895F894FFCF59
:1009E800420242014200410241014100440200002A
:00000001FF
